{
  "_format": "hh-sol-artifact-1",
  "contractName": "MyNFT",
  "sourceName": "contracts/MyNFT.sol",
  "abi": [
    {
      "inputs": [],
      "stateMutability": "nonpayable",
      "type": "constructor"
    },
    {
      "anonymous": false,
      "inputs": [
        {
          "indexed": true,
          "internalType": "address",
          "name": "owner",
          "type": "address"
        },
        {
          "indexed": true,
          "internalType": "address",
          "name": "approved",
          "type": "address"
        },
        {
          "indexed": true,
          "internalType": "uint256",
          "name": "tokenId",
          "type": "uint256"
        }
      ],
      "name": "Approval",
      "type": "event"
    },
    {
      "anonymous": false,
      "inputs": [
        {
          "indexed": true,
          "internalType": "address",
          "name": "owner",
          "type": "address"
        },
        {
          "indexed": true,
          "internalType": "address",
          "name": "operator",
          "type": "address"
        },
        {
          "indexed": false,
          "internalType": "bool",
          "name": "approved",
          "type": "bool"
        }
      ],
      "name": "ApprovalForAll",
      "type": "event"
    },
    {
      "anonymous": false,
      "inputs": [
        {
          "indexed": true,
          "internalType": "address",
          "name": "previousOwner",
          "type": "address"
        },
        {
          "indexed": true,
          "internalType": "address",
          "name": "newOwner",
          "type": "address"
        }
      ],
      "name": "OwnershipTransferred",
      "type": "event"
    },
    {
      "anonymous": false,
      "inputs": [
        {
          "indexed": true,
          "internalType": "address",
          "name": "from",
          "type": "address"
        },
        {
          "indexed": true,
          "internalType": "address",
          "name": "to",
          "type": "address"
        },
        {
          "indexed": true,
          "internalType": "uint256",
          "name": "tokenId",
          "type": "uint256"
        }
      ],
      "name": "Transfer",
      "type": "event"
    },
    {
      "inputs": [
        {
          "internalType": "address",
          "name": "to",
          "type": "address"
        },
        {
          "internalType": "uint256",
          "name": "tokenId",
          "type": "uint256"
        }
      ],
      "name": "approve",
      "outputs": [],
      "stateMutability": "nonpayable",
      "type": "function"
    },
    {
      "inputs": [
        {
          "internalType": "address",
          "name": "owner",
          "type": "address"
        }
      ],
      "name": "balanceOf",
      "outputs": [
        {
          "internalType": "uint256",
          "name": "",
          "type": "uint256"
        }
      ],
      "stateMutability": "view",
      "type": "function"
    },
    {
      "inputs": [
        {
          "internalType": "uint256",
          "name": "tokenId",
          "type": "uint256"
        }
      ],
      "name": "collectNft",
      "outputs": [],
      "stateMutability": "nonpayable",
      "type": "function"
    },
    {
      "inputs": [
        {
          "internalType": "uint256",
          "name": "tokenId",
          "type": "uint256"
        }
      ],
      "name": "getApproved",
      "outputs": [
        {
          "internalType": "address",
          "name": "",
          "type": "address"
        }
      ],
      "stateMutability": "view",
      "type": "function"
    },
    {
      "inputs": [
        {
          "internalType": "address",
          "name": "owner",
          "type": "address"
        },
        {
          "internalType": "address",
          "name": "operator",
          "type": "address"
        }
      ],
      "name": "isApprovedForAll",
      "outputs": [
        {
          "internalType": "bool",
          "name": "",
          "type": "bool"
        }
      ],
      "stateMutability": "view",
      "type": "function"
    },
    {
      "inputs": [],
      "name": "name",
      "outputs": [
        {
          "internalType": "string",
          "name": "",
          "type": "string"
        }
      ],
      "stateMutability": "view",
      "type": "function"
    },
    {
      "inputs": [
        {
          "internalType": "address",
          "name": "operator",
          "type": "address"
        },
        {
          "internalType": "address",
          "name": "from",
          "type": "address"
        },
        {
          "internalType": "uint256",
          "name": "tokenId",
          "type": "uint256"
        },
        {
          "internalType": "bytes",
          "name": "data",
          "type": "bytes"
        }
      ],
      "name": "onERC721Received",
      "outputs": [
        {
          "internalType": "bytes4",
          "name": "validity",
          "type": "bytes4"
        }
      ],
      "stateMutability": "pure",
      "type": "function"
    },
    {
      "inputs": [],
      "name": "owner",
      "outputs": [
        {
          "internalType": "address",
          "name": "",
          "type": "address"
        }
      ],
      "stateMutability": "view",
      "type": "function"
    },
    {
      "inputs": [
        {
          "internalType": "uint256",
          "name": "tokenId",
          "type": "uint256"
        }
      ],
      "name": "ownerOf",
      "outputs": [
        {
          "internalType": "address",
          "name": "",
          "type": "address"
        }
      ],
      "stateMutability": "view",
      "type": "function"
    },
    {
      "inputs": [],
      "name": "renounceOwnership",
      "outputs": [],
      "stateMutability": "nonpayable",
      "type": "function"
    },
    {
      "inputs": [
        {
          "internalType": "address",
          "name": "to",
          "type": "address"
        },
        {
          "internalType": "string",
          "name": "uri",
          "type": "string"
        }
      ],
      "name": "safeMint",
      "outputs": [],
      "stateMutability": "nonpayable",
      "type": "function"
    },
    {
      "inputs": [
        {
          "internalType": "address",
          "name": "from",
          "type": "address"
        },
        {
          "internalType": "address",
          "name": "to",
          "type": "address"
        },
        {
          "internalType": "uint256",
          "name": "tokenId",
          "type": "uint256"
        }
      ],
      "name": "safeTransferFrom",
      "outputs": [],
      "stateMutability": "nonpayable",
      "type": "function"
    },
    {
      "inputs": [
        {
          "internalType": "address",
          "name": "from",
          "type": "address"
        },
        {
          "internalType": "address",
          "name": "to",
          "type": "address"
        },
        {
          "internalType": "uint256",
          "name": "tokenId",
          "type": "uint256"
        },
        {
          "internalType": "bytes",
          "name": "_data",
          "type": "bytes"
        }
      ],
      "name": "safeTransferFrom",
      "outputs": [],
      "stateMutability": "nonpayable",
      "type": "function"
    },
    {
      "inputs": [
        {
          "internalType": "address",
          "name": "operator",
          "type": "address"
        },
        {
          "internalType": "bool",
          "name": "approved",
          "type": "bool"
        }
      ],
      "name": "setApprovalForAll",
      "outputs": [],
      "stateMutability": "nonpayable",
      "type": "function"
    },
    {
      "inputs": [
        {
          "internalType": "bytes4",
          "name": "interfaceId",
          "type": "bytes4"
        }
      ],
      "name": "supportsInterface",
      "outputs": [
        {
          "internalType": "bool",
          "name": "",
          "type": "bool"
        }
      ],
      "stateMutability": "view",
      "type": "function"
    },
    {
      "inputs": [],
      "name": "symbol",
      "outputs": [
        {
          "internalType": "string",
          "name": "",
          "type": "string"
        }
      ],
      "stateMutability": "view",
      "type": "function"
    },
    {
      "inputs": [
        {
          "internalType": "uint256",
          "name": "index",
          "type": "uint256"
        }
      ],
      "name": "tokenByIndex",
      "outputs": [
        {
          "internalType": "uint256",
          "name": "",
          "type": "uint256"
        }
      ],
      "stateMutability": "view",
      "type": "function"
    },
    {
      "inputs": [
        {
          "internalType": "address",
          "name": "owner",
          "type": "address"
        },
        {
          "internalType": "uint256",
          "name": "index",
          "type": "uint256"
        }
      ],
      "name": "tokenOfOwnerByIndex",
      "outputs": [
        {
          "internalType": "uint256",
          "name": "",
          "type": "uint256"
        }
      ],
      "stateMutability": "view",
      "type": "function"
    },
    {
      "inputs": [
        {
          "internalType": "uint256",
          "name": "tokenId",
          "type": "uint256"
        }
      ],
      "name": "tokenURI",
      "outputs": [
        {
          "internalType": "string",
          "name": "",
          "type": "string"
        }
      ],
      "stateMutability": "view",
      "type": "function"
    },
    {
      "inputs": [],
      "name": "totalSupply",
      "outputs": [
        {
          "internalType": "uint256",
          "name": "",
          "type": "uint256"
        }
      ],
      "stateMutability": "view",
      "type": "function"
    },
    {
      "inputs": [
        {
          "internalType": "address",
          "name": "from",
          "type": "address"
        },
        {
          "internalType": "address",
          "name": "to",
          "type": "address"
        },
        {
          "internalType": "uint256",
          "name": "tokenId",
          "type": "uint256"
        }
      ],
      "name": "transferFrom",
      "outputs": [],
      "stateMutability": "nonpayable",
      "type": "function"
    },
    {
      "inputs": [
        {
          "internalType": "address",
          "name": "newOwner",
          "type": "address"
        }
      ],
      "name": "transferOwnership",
      "outputs": [],
      "stateMutability": "nonpayable",
      "type": "function"
    }
  ],
  "bytecode": "0x60806040523480156200001157600080fd5b506040518060400160405280600581526020017f4d794e46540000000000000000000000000000000000000000000000000000008152506040518060400160405280600481526020017f4d4e465400000000000000000000000000000000000000000000000000000000815250816000908051906020019062000096929190620001a6565b508060019080519060200190620000af929190620001a6565b505050620000d2620000c6620000d860201b60201c565b620000e060201b60201c565b620002bb565b600033905090565b6000600b60009054906101000a900473ffffffffffffffffffffffffffffffffffffffff16905081600b60006101000a81548173ffffffffffffffffffffffffffffffffffffffff021916908373ffffffffffffffffffffffffffffffffffffffff1602179055508173ffffffffffffffffffffffffffffffffffffffff168173ffffffffffffffffffffffffffffffffffffffff167f8be0079c531659141344cd1fd0a4f28419497f9722a3daafe3b4186f6b6457e060405160405180910390a35050565b828054620001b49062000256565b90600052602060002090601f016020900481019282620001d8576000855562000224565b82601f10620001f357805160ff191683800117855562000224565b8280016001018555821562000224579182015b828111156200022357825182559160200191906001019062000206565b5b50905062000233919062000237565b5090565b5b808211156200025257600081600090555060010162000238565b5090565b600060028204905060018216806200026f57607f821691505b602082108114156200028657620002856200028c565b5b50919050565b7f4e487b7100000000000000000000000000000000000000000000000000000000600052602260045260246000fd5b613c4980620002cb6000396000f3fe608060405234801561001057600080fd5b50600436106101425760003560e01c806370a08231116100b8578063a22cb4651161007c578063a22cb46514610389578063b88d4fde146103a5578063c87b56dd146103c1578063d204c45e146103f1578063e985e9c51461040d578063f2fde38b1461043d57610142565b806370a08231146102f7578063715018a6146103275780637b534fab146103315780638da5cb5b1461034d57806395d89b411461036b57610142565b806318160ddd1161010a57806318160ddd1461021157806323b872dd1461022f5780632f745c591461024b57806342842e0e1461027b5780634f6ccce7146102975780636352211e146102c757610142565b806301ffc9a71461014757806306fdde0314610177578063081812fc14610195578063095ea7b3146101c5578063150b7a02146101e1575b600080fd5b610161600480360381019061015c9190612940565b610459565b60405161016e9190612e4a565b60405180910390f35b61017f61046b565b60405161018c9190612e80565b60405180910390f35b6101af60048036038101906101aa9190612992565b6104fd565b6040516101bc9190612de3565b60405180910390f35b6101df60048036038101906101da9190612904565b610582565b005b6101fb60048036038101906101f69190612779565b61069a565b6040516102089190612e65565b60405180910390f35b6102196106af565b6040516102269190613182565b60405180910390f35b6102496004803603810190610244919061272a565b6106bc565b005b61026560048036038101906102609190612904565b61071c565b6040516102729190613182565b60405180910390f35b6102956004803603810190610290919061272a565b6107c1565b005b6102b160048036038101906102ac9190612992565b6107e1565b6040516102be9190613182565b60405180910390f35b6102e160048036038101906102dc9190612992565b610878565b6040516102ee9190612de3565b60405180910390f35b610311600480360381019061030c91906126c5565b61092a565b60405161031e9190613182565b60405180910390f35b61032f6109e2565b005b61034b60048036038101906103469190612992565b610a6a565b005b610355610bbb565b6040516103629190612de3565b60405180910390f35b610373610be5565b6040516103809190612e80565b60405180910390f35b6103a3600480360381019061039e9190612874565b610c77565b005b6103bf60048036038101906103ba91906127f9565b610c8d565b005b6103db60048036038101906103d69190612992565b610cef565b6040516103e89190612e80565b60405180910390f35b61040b600480360381019061040691906128b0565b610d01565b005b610427600480360381019061042291906126ee565b610d32565b6040516104349190612e4a565b60405180910390f35b610457600480360381019061045291906126c5565b610dc6565b005b600061046482610ebe565b9050919050565b60606000805461047a906133d8565b80601f01602080910402602001604051908101604052809291908181526020018280546104a6906133d8565b80156104f35780601f106104c8576101008083540402835291602001916104f3565b820191906000526020600020905b8154815290600101906020018083116104d657829003601f168201915b5050505050905090565b600061050882610f38565b610547576040517f08c379a000000000000000000000000000000000000000000000000000000000815260040161053e90613062565b60405180910390fd5b6004600083815260200190815260200160002060009054906101000a900473ffffffffffffffffffffffffffffffffffffffff169050919050565b600061058d82610878565b90508073ffffffffffffffffffffffffffffffffffffffff168373ffffffffffffffffffffffffffffffffffffffff1614156105fe576040517f08c379a00000000000000000000000000000000000000000000000000000000081526004016105f5906130e2565b60405180910390fd5b8073ffffffffffffffffffffffffffffffffffffffff1661061d610fa4565b73ffffffffffffffffffffffffffffffffffffffff16148061064c575061064b81610646610fa4565b610d32565b5b61068b576040517f08c379a000000000000000000000000000000000000000000000000000000000815260040161068290612fa2565b60405180910390fd5b6106958383610fac565b505050565b600063150b7a0260e01b905095945050505050565b6000600880549050905090565b6106cd6106c7610fa4565b82611065565b61070c576040517f08c379a000000000000000000000000000000000000000000000000000000000815260040161070390613102565b60405180910390fd5b610717838383611143565b505050565b60006107278361092a565b8210610768576040517f08c379a000000000000000000000000000000000000000000000000000000000815260040161075f90612ea2565b60405180910390fd5b600660008473ffffffffffffffffffffffffffffffffffffffff1673ffffffffffffffffffffffffffffffffffffffff168152602001908152602001600020600083815260200190815260200160002054905092915050565b6107dc83838360405180602001604052806000815250610c8d565b505050565b60006107eb6106af565b821061082c576040517f08c379a000000000000000000000000000000000000000000000000000000000815260040161082390613142565b60405180910390fd5b60088281548110610866577f4e487b7100000000000000000000000000000000000000000000000000000000600052603260045260246000fd5b90600052602060002001549050919050565b6000806002600084815260200190815260200160002060009054906101000a900473ffffffffffffffffffffffffffffffffffffffff169050600073ffffffffffffffffffffffffffffffffffffffff168173ffffffffffffffffffffffffffffffffffffffff161415610921576040517f08c379a000000000000000000000000000000000000000000000000000000000815260040161091890612fe2565b60405180910390fd5b80915050919050565b60008073ffffffffffffffffffffffffffffffffffffffff168273ffffffffffffffffffffffffffffffffffffffff16141561099b576040517f08c379a000000000000000000000000000000000000000000000000000000000815260040161099290612fc2565b60405180910390fd5b600360008373ffffffffffffffffffffffffffffffffffffffff1673ffffffffffffffffffffffffffffffffffffffff168152602001908152602001600020549050919050565b6109ea610fa4565b73ffffffffffffffffffffffffffffffffffffffff16610a08610bbb565b73ffffffffffffffffffffffffffffffffffffffff1614610a5e576040517f08c379a0000000000000000000000000000000000000000000000000000000008152600401610a5590613082565b60405180910390fd5b610a6860006113aa565b565b600073ffffffffffffffffffffffffffffffffffffffff16610a8b82611470565b73ffffffffffffffffffffffffffffffffffffffff161415610ae2576040517f08c379a0000000000000000000000000000000000000000000000000000000008152600401610ad990613122565b60405180910390fd5b3373ffffffffffffffffffffffffffffffffffffffff16610b0282611470565b73ffffffffffffffffffffffffffffffffffffffff161415610b59576040517f08c379a0000000000000000000000000000000000000000000000000000000008152600401610b50906130c2565b60405180910390fd5b6003610b643361092a565b1115610ba5576040517f08c379a0000000000000000000000000000000000000000000000000000000008152600401610b9c90613162565b60405180910390fd5b610bb8610bb182611470565b3383611143565b50565b6000600b60009054906101000a900473ffffffffffffffffffffffffffffffffffffffff16905090565b606060018054610bf4906133d8565b80601f0160208091040260200160405190810160405280929190818152602001828054610c20906133d8565b8015610c6d5780601f10610c4257610100808354040283529160200191610c6d565b820191906000526020600020905b815481529060010190602001808311610c5057829003601f168201915b5050505050905090565b610c89610c82610fa4565b8383611482565b5050565b610c9e610c98610fa4565b83611065565b610cdd576040517f08c379a0000000000000000000000000000000000000000000000000000000008152600401610cd490613102565b60405180910390fd5b610ce9848484846115ef565b50505050565b6060610cfa8261164b565b9050919050565b6000610d0d600c61179d565b9050610d19600c6117ab565b610d2383826117c1565b610d2d81836117df565b505050565b6000600560008473ffffffffffffffffffffffffffffffffffffffff1673ffffffffffffffffffffffffffffffffffffffff16815260200190815260200160002060008373ffffffffffffffffffffffffffffffffffffffff1673ffffffffffffffffffffffffffffffffffffffff16815260200190815260200160002060009054906101000a900460ff16905092915050565b610dce610fa4565b73ffffffffffffffffffffffffffffffffffffffff16610dec610bbb565b73ffffffffffffffffffffffffffffffffffffffff1614610e42576040517f08c379a0000000000000000000000000000000000000000000000000000000008152600401610e3990613082565b60405180910390fd5b600073ffffffffffffffffffffffffffffffffffffffff168173ffffffffffffffffffffffffffffffffffffffff161415610eb2576040517f08c379a0000000000000000000000000000000000000000000000000000000008152600401610ea990612ee2565b60405180910390fd5b610ebb816113aa565b50565b60007f780e9d63000000000000000000000000000000000000000000000000000000007bffffffffffffffffffffffffffffffffffffffffffffffffffffffff1916827bffffffffffffffffffffffffffffffffffffffffffffffffffffffff19161480610f315750610f3082611853565b5b9050919050565b60008073ffffffffffffffffffffffffffffffffffffffff166002600084815260200190815260200160002060009054906101000a900473ffffffffffffffffffffffffffffffffffffffff1673ffffffffffffffffffffffffffffffffffffffff1614159050919050565b600033905090565b816004600083815260200190815260200160002060006101000a81548173ffffffffffffffffffffffffffffffffffffffff021916908373ffffffffffffffffffffffffffffffffffffffff160217905550808273ffffffffffffffffffffffffffffffffffffffff1661101f83610878565b73ffffffffffffffffffffffffffffffffffffffff167f8c5be1e5ebec7d5bd14f71427d1e84f3dd0314c0f7b2291e5b200ac8c7c3b92560405160405180910390a45050565b600061107082610f38565b6110af576040517f08c379a00000000000000000000000000000000000000000000000000000000081526004016110a690612f82565b60405180910390fd5b60006110ba83610878565b90508073ffffffffffffffffffffffffffffffffffffffff168473ffffffffffffffffffffffffffffffffffffffff1614806110fc57506110fb8185610d32565b5b8061113a57508373ffffffffffffffffffffffffffffffffffffffff16611122846104fd565b73ffffffffffffffffffffffffffffffffffffffff16145b91505092915050565b8273ffffffffffffffffffffffffffffffffffffffff1661116382610878565b73ffffffffffffffffffffffffffffffffffffffff16146111b9576040517f08c379a00000000000000000000000000000000000000000000000000000000081526004016111b090612f02565b60405180910390fd5b600073ffffffffffffffffffffffffffffffffffffffff168273ffffffffffffffffffffffffffffffffffffffff161415611229576040517f08c379a000000000000000000000000000000000000000000000000000000000815260040161122090612f42565b60405180910390fd5b611234838383611935565b61123f600082610fac565b6001600360008573ffffffffffffffffffffffffffffffffffffffff1673ffffffffffffffffffffffffffffffffffffffff168152602001908152602001600020600082825461128f91906132ee565b925050819055506001600360008473ffffffffffffffffffffffffffffffffffffffff1673ffffffffffffffffffffffffffffffffffffffff16815260200190815260200160002060008282546112e69190613267565b92505081905550816002600083815260200190815260200160002060006101000a81548173ffffffffffffffffffffffffffffffffffffffff021916908373ffffffffffffffffffffffffffffffffffffffff160217905550808273ffffffffffffffffffffffffffffffffffffffff168473ffffffffffffffffffffffffffffffffffffffff167fddf252ad1be2c89b69c2b068fc378daa952ba7f163c4a11628f55a4df523b3ef60405160405180910390a46113a5838383611945565b505050565b6000600b60009054906101000a900473ffffffffffffffffffffffffffffffffffffffff16905081600b60006101000a81548173ffffffffffffffffffffffffffffffffffffffff021916908373ffffffffffffffffffffffffffffffffffffffff1602179055508173ffffffffffffffffffffffffffffffffffffffff168173ffffffffffffffffffffffffffffffffffffffff167f8be0079c531659141344cd1fd0a4f28419497f9722a3daafe3b4186f6b6457e060405160405180910390a35050565b600061147b82610878565b9050919050565b8173ffffffffffffffffffffffffffffffffffffffff168373ffffffffffffffffffffffffffffffffffffffff1614156114f1576040517f08c379a00000000000000000000000000000000000000000000000000000000081526004016114e890612f62565b60405180910390fd5b80600560008573ffffffffffffffffffffffffffffffffffffffff1673ffffffffffffffffffffffffffffffffffffffff16815260200190815260200160002060008473ffffffffffffffffffffffffffffffffffffffff1673ffffffffffffffffffffffffffffffffffffffff16815260200190815260200160002060006101000a81548160ff0219169083151502179055508173ffffffffffffffffffffffffffffffffffffffff168373ffffffffffffffffffffffffffffffffffffffff167f17307eab39ab6107e8899845ad3d59bd9653f200f220920489ca2b5937696c31836040516115e29190612e4a565b60405180910390a3505050565b6115fa848484611143565b6116068484848461194a565b611645576040517f08c379a000000000000000000000000000000000000000000000000000000000815260040161163c90612ec2565b60405180910390fd5b50505050565b606061165682610f38565b611695576040517f08c379a000000000000000000000000000000000000000000000000000000000815260040161168c90613042565b60405180910390fd5b6000600a600084815260200190815260200160002080546116b5906133d8565b80601f01602080910402602001604051908101604052809291908181526020018280546116e1906133d8565b801561172e5780601f106117035761010080835404028352916020019161172e565b820191906000526020600020905b81548152906001019060200180831161171157829003601f168201915b50505050509050600061173f611ae1565b9050600081511415611755578192505050611798565b60008251111561178a578082604051602001611772929190612dbf565b60405160208183030381529060405292505050611798565b61179384611af8565b925050505b919050565b600081600001549050919050565b6001816000016000828254019250508190555050565b6117db828260405180602001604052806000815250611b9f565b5050565b6117e882610f38565b611827576040517f08c379a000000000000000000000000000000000000000000000000000000000815260040161181e90613002565b60405180910390fd5b80600a6000848152602001908152602001600020908051906020019061184e92919061249f565b505050565b60007f80ac58cd000000000000000000000000000000000000000000000000000000007bffffffffffffffffffffffffffffffffffffffffffffffffffffffff1916827bffffffffffffffffffffffffffffffffffffffffffffffffffffffff1916148061191e57507f5b5e139f000000000000000000000000000000000000000000000000000000007bffffffffffffffffffffffffffffffffffffffffffffffffffffffff1916827bffffffffffffffffffffffffffffffffffffffffffffffffffffffff1916145b8061192e575061192d82611bfa565b5b9050919050565b611940838383611c64565b505050565b505050565b600061196b8473ffffffffffffffffffffffffffffffffffffffff16611d78565b15611ad4578373ffffffffffffffffffffffffffffffffffffffff1663150b7a02611994610fa4565b8786866040518563ffffffff1660e01b81526004016119b69493929190612dfe565b602060405180830381600087803b1580156119d057600080fd5b505af1925050508015611a0157506040513d601f19601f820116820180604052508101906119fe9190612969565b60015b611a84573d8060008114611a31576040519150601f19603f3d011682016040523d82523d6000602084013e611a36565b606091505b50600081511415611a7c576040517f08c379a0000000000000000000000000000000000000000000000000000000008152600401611a7390612ec2565b60405180910390fd5b805181602001fd5b63150b7a0260e01b7bffffffffffffffffffffffffffffffffffffffffffffffffffffffff1916817bffffffffffffffffffffffffffffffffffffffffffffffffffffffff191614915050611ad9565b600190505b949350505050565b606060405180602001604052806000815250905090565b6060611b0382610f38565b611b42576040517f08c379a0000000000000000000000000000000000000000000000000000000008152600401611b39906130a2565b60405180910390fd5b6000611b4c611ae1565b90506000815111611b6c5760405180602001604052806000815250611b97565b80611b7684611d9b565b604051602001611b87929190612dbf565b6040516020818303038152906040525b915050919050565b611ba98383611f48565b611bb6600084848461194a565b611bf5576040517f08c379a0000000000000000000000000000000000000000000000000000000008152600401611bec90612ec2565b60405180910390fd5b505050565b60007f01ffc9a7000000000000000000000000000000000000000000000000000000007bffffffffffffffffffffffffffffffffffffffffffffffffffffffff1916827bffffffffffffffffffffffffffffffffffffffffffffffffffffffff1916149050919050565b611c6f838383612122565b600073ffffffffffffffffffffffffffffffffffffffff168373ffffffffffffffffffffffffffffffffffffffff161415611cb257611cad81612127565b611cf1565b8173ffffffffffffffffffffffffffffffffffffffff168373ffffffffffffffffffffffffffffffffffffffff1614611cf057611cef8382612170565b5b5b600073ffffffffffffffffffffffffffffffffffffffff168273ffffffffffffffffffffffffffffffffffffffff161415611d3457611d2f816122dd565b611d73565b8273ffffffffffffffffffffffffffffffffffffffff168273ffffffffffffffffffffffffffffffffffffffff1614611d7257611d718282612420565b5b5b505050565b6000808273ffffffffffffffffffffffffffffffffffffffff163b119050919050565b60606000821415611de3576040518060400160405280600181526020017f30000000000000000000000000000000000000000000000000000000000000008152509050611f43565b600082905060005b60008214611e15578080611dfe9061343b565b915050600a82611e0e91906132bd565b9150611deb565b60008167ffffffffffffffff811115611e57577f4e487b7100000000000000000000000000000000000000000000000000000000600052604160045260246000fd5b6040519080825280601f01601f191660200182016040528015611e895781602001600182028036833780820191505090505b5090505b60008514611f3c57600182611ea291906132ee565b9150600a85611eb19190613484565b6030611ebd9190613267565b60f81b818381518110611ef9577f4e487b7100000000000000000000000000000000000000000000000000000000600052603260045260246000fd5b60200101907effffffffffffffffffffffffffffffffffffffffffffffffffffffffffffff1916908160001a905350600a85611f3591906132bd565b9450611e8d565b8093505050505b919050565b600073ffffffffffffffffffffffffffffffffffffffff168273ffffffffffffffffffffffffffffffffffffffff161415611fb8576040517f08c379a0000000000000000000000000000000000000000000000000000000008152600401611faf90613022565b60405180910390fd5b611fc181610f38565b15612001576040517f08c379a0000000000000000000000000000000000000000000000000000000008152600401611ff890612f22565b60405180910390fd5b61200d60008383611935565b6001600360008473ffffffffffffffffffffffffffffffffffffffff1673ffffffffffffffffffffffffffffffffffffffff168152602001908152602001600020600082825461205d9190613267565b92505081905550816002600083815260200190815260200160002060006101000a81548173ffffffffffffffffffffffffffffffffffffffff021916908373ffffffffffffffffffffffffffffffffffffffff160217905550808273ffffffffffffffffffffffffffffffffffffffff16600073ffffffffffffffffffffffffffffffffffffffff167fddf252ad1be2c89b69c2b068fc378daa952ba7f163c4a11628f55a4df523b3ef60405160405180910390a461211e60008383611945565b5050565b505050565b6008805490506009600083815260200190815260200160002081905550600881908060018154018082558091505060019003906000526020600020016000909190919091505550565b6000600161217d8461092a565b61218791906132ee565b905060006007600084815260200190815260200160002054905081811461226c576000600660008673ffffffffffffffffffffffffffffffffffffffff1673ffffffffffffffffffffffffffffffffffffffff168152602001908152602001600020600084815260200190815260200160002054905080600660008773ffffffffffffffffffffffffffffffffffffffff1673ffffffffffffffffffffffffffffffffffffffff168152602001908152602001600020600084815260200190815260200160002081905550816007600083815260200190815260200160002081905550505b6007600084815260200190815260200160002060009055600660008573ffffffffffffffffffffffffffffffffffffffff1673ffffffffffffffffffffffffffffffffffffffff16815260200190815260200160002060008381526020019081526020016000206000905550505050565b600060016008805490506122f191906132ee565b9050600060096000848152602001908152602001600020549050600060088381548110612347577f4e487b7100000000000000000000000000000000000000000000000000000000600052603260045260246000fd5b90600052602060002001549050806008838154811061238f577f4e487b7100000000000000000000000000000000000000000000000000000000600052603260045260246000fd5b906000526020600020018190555081600960008381526020019081526020016000208190555060096000858152602001908152602001600020600090556008805480612404577f4e487b7100000000000000000000000000000000000000000000000000000000600052603160045260246000fd5b6001900381819060005260206000200160009055905550505050565b600061242b8361092a565b905081600660008573ffffffffffffffffffffffffffffffffffffffff1673ffffffffffffffffffffffffffffffffffffffff168152602001908152602001600020600083815260200190815260200160002081905550806007600084815260200190815260200160002081905550505050565b8280546124ab906133d8565b90600052602060002090601f0160209004810192826124cd5760008555612514565b82601f106124e657805160ff1916838001178555612514565b82800160010185558215612514579182015b828111156125135782518255916020019190600101906124f8565b5b5090506125219190612525565b5090565b5b8082111561253e576000816000905550600101612526565b5090565b6000612555612550846131c2565b61319d565b90508281526020810184848401111561256d57600080fd5b612578848285613396565b509392505050565b600061259361258e846131f3565b61319d565b9050828152602081018484840111156125ab57600080fd5b6125b6848285613396565b509392505050565b6000813590506125cd81613bb7565b92915050565b6000813590506125e281613bce565b92915050565b6000813590506125f781613be5565b92915050565b60008151905061260c81613be5565b92915050565b60008083601f84011261262457600080fd5b8235905067ffffffffffffffff81111561263d57600080fd5b60208301915083600182028301111561265557600080fd5b9250929050565b600082601f83011261266d57600080fd5b813561267d848260208601612542565b91505092915050565b600082601f83011261269757600080fd5b81356126a7848260208601612580565b91505092915050565b6000813590506126bf81613bfc565b92915050565b6000602082840312156126d757600080fd5b60006126e5848285016125be565b91505092915050565b6000806040838503121561270157600080fd5b600061270f858286016125be565b9250506020612720858286016125be565b9150509250929050565b60008060006060848603121561273f57600080fd5b600061274d868287016125be565b935050602061275e868287016125be565b925050604061276f868287016126b0565b9150509250925092565b60008060008060006080868803121561279157600080fd5b600061279f888289016125be565b95505060206127b0888289016125be565b94505060406127c1888289016126b0565b935050606086013567ffffffffffffffff8111156127de57600080fd5b6127ea88828901612612565b92509250509295509295909350565b6000806000806080858703121561280f57600080fd5b600061281d878288016125be565b945050602061282e878288016125be565b935050604061283f878288016126b0565b925050606085013567ffffffffffffffff81111561285c57600080fd5b6128688782880161265c565b91505092959194509250565b6000806040838503121561288757600080fd5b6000612895858286016125be565b92505060206128a6858286016125d3565b9150509250929050565b600080604083850312156128c357600080fd5b60006128d1858286016125be565b925050602083013567ffffffffffffffff8111156128ee57600080fd5b6128fa85828601612686565b9150509250929050565b6000806040838503121561291757600080fd5b6000612925858286016125be565b9250506020612936858286016126b0565b9150509250929050565b60006020828403121561295257600080fd5b6000612960848285016125e8565b91505092915050565b60006020828403121561297b57600080fd5b6000612989848285016125fd565b91505092915050565b6000602082840312156129a457600080fd5b60006129b2848285016126b0565b91505092915050565b6129c481613322565b82525050565b6129d381613334565b82525050565b6129e281613340565b82525050565b60006129f382613224565b6129fd818561323a565b9350612a0d8185602086016133a5565b612a1681613571565b840191505092915050565b6000612a2c8261322f565b612a36818561324b565b9350612a468185602086016133a5565b612a4f81613571565b840191505092915050565b6000612a658261322f565b612a6f818561325c565b9350612a7f8185602086016133a5565b80840191505092915050565b6000612a98602b8361324b565b9150612aa382613582565b604082019050919050565b6000612abb60328361324b565b9150612ac6826135d1565b604082019050919050565b6000612ade60268361324b565b9150612ae982613620565b604082019050919050565b6000612b0160258361324b565b9150612b0c8261366f565b604082019050919050565b6000612b24601c8361324b565b9150612b2f826136be565b602082019050919050565b6000612b4760248361324b565b9150612b52826136e7565b604082019050919050565b6000612b6a60198361324b565b9150612b7582613736565b602082019050919050565b6000612b8d602c8361324b565b9150612b988261375f565b604082019050919050565b6000612bb060388361324b565b9150612bbb826137ae565b604082019050919050565b6000612bd3602a8361324b565b9150612bde826137fd565b604082019050919050565b6000612bf660298361324b565b9150612c018261384c565b604082019050919050565b6000612c19602e8361324b565b9150612c248261389b565b604082019050919050565b6000612c3c60208361324b565b9150612c47826138ea565b602082019050919050565b6000612c5f60318361324b565b9150612c6a82613913565b604082019050919050565b6000612c82602c8361324b565b9150612c8d82613962565b604082019050919050565b6000612ca560208361324b565b9150612cb0826139b1565b602082019050919050565b6000612cc8602f8361324b565b9150612cd3826139da565b604082019050919050565b6000612ceb60108361324b565b9150612cf682613a29565b602082019050919050565b6000612d0e60218361324b565b9150612d1982613a52565b604082019050919050565b6000612d3160318361324b565b9150612d3c82613aa1565b604082019050919050565b6000612d5460208361324b565b9150612d5f82613af0565b602082019050919050565b6000612d77602c8361324b565b9150612d8282613b19565b604082019050919050565b6000612d9a60298361324b565b9150612da582613b68565b604082019050919050565b612db98161338c565b82525050565b6000612dcb8285612a5a565b9150612dd78284612a5a565b91508190509392505050565b6000602082019050612df860008301846129bb565b92915050565b6000608082019050612e1360008301876129bb565b612e2060208301866129bb565b612e2d6040830185612db0565b8181036060830152612e3f81846129e8565b905095945050505050565b6000602082019050612e5f60008301846129ca565b92915050565b6000602082019050612e7a60008301846129d9565b92915050565b60006020820190508181036000830152612e9a8184612a21565b905092915050565b60006020820190508181036000830152612ebb81612a8b565b9050919050565b60006020820190508181036000830152612edb81612aae565b9050919050565b60006020820190508181036000830152612efb81612ad1565b9050919050565b60006020820190508181036000830152612f1b81612af4565b9050919050565b60006020820190508181036000830152612f3b81612b17565b9050919050565b60006020820190508181036000830152612f5b81612b3a565b9050919050565b60006020820190508181036000830152612f7b81612b5d565b9050919050565b60006020820190508181036000830152612f9b81612b80565b9050919050565b60006020820190508181036000830152612fbb81612ba3565b9050919050565b60006020820190508181036000830152612fdb81612bc6565b9050919050565b60006020820190508181036000830152612ffb81612be9565b9050919050565b6000602082019050818103600083015261301b81612c0c565b9050919050565b6000602082019050818103600083015261303b81612c2f565b9050919050565b6000602082019050818103600083015261305b81612c52565b9050919050565b6000602082019050818103600083015261307b81612c75565b9050919050565b6000602082019050818103600083015261309b81612c98565b9050919050565b600060208201905081810360008301526130bb81612cbb565b9050919050565b600060208201905081810360008301526130db81612cde565b9050919050565b600060208201905081810360008301526130fb81612d01565b9050919050565b6000602082019050818103600083015261311b81612d24565b9050919050565b6000602082019050818103600083015261313b81612d47565b9050919050565b6000602082019050818103600083015261315b81612d6a565b9050919050565b6000602082019050818103600083015261317b81612d8d565b9050919050565b60006020820190506131976000830184612db0565b92915050565b60006131a76131b8565b90506131b3828261340a565b919050565b6000604051905090565b600067ffffffffffffffff8211156131dd576131dc613542565b5b6131e682613571565b9050602081019050919050565b600067ffffffffffffffff82111561320e5761320d613542565b5b61321782613571565b9050602081019050919050565b600081519050919050565b600081519050919050565b600082825260208201905092915050565b600082825260208201905092915050565b600081905092915050565b60006132728261338c565b915061327d8361338c565b9250827fffffffffffffffffffffffffffffffffffffffffffffffffffffffffffffffff038211156132b2576132b16134b5565b5b828201905092915050565b60006132c88261338c565b91506132d38361338c565b9250826132e3576132e26134e4565b5b828204905092915050565b60006132f98261338c565b91506133048361338c565b925082821015613317576133166134b5565b5b828203905092915050565b600061332d8261336c565b9050919050565b60008115159050919050565b60007fffffffff0000000000000000000000000000000000000000000000000000000082169050919050565b600073ffffffffffffffffffffffffffffffffffffffff82169050919050565b6000819050919050565b82818337600083830152505050565b60005b838110156133c35780820151818401526020810190506133a8565b838111156133d2576000848401525b50505050565b600060028204905060018216806133f057607f821691505b6020821081141561340457613403613513565b5b50919050565b61341382613571565b810181811067ffffffffffffffff8211171561343257613431613542565b5b80604052505050565b60006134468261338c565b91507fffffffffffffffffffffffffffffffffffffffffffffffffffffffffffffffff821415613479576134786134b5565b5b600182019050919050565b600061348f8261338c565b915061349a8361338c565b9250826134aa576134a96134e4565b5b828206905092915050565b7f4e487b7100000000000000000000000000000000000000000000000000000000600052601160045260246000fd5b7f4e487b7100000000000000000000000000000000000000000000000000000000600052601260045260246000fd5b7f4e487b7100000000000000000000000000000000000000000000000000000000600052602260045260246000fd5b7f4e487b7100000000000000000000000000000000000000000000000000000000600052604160045260246000fd5b6000601f19601f8301169050919050565b7f455243373231456e756d657261626c653a206f776e657220696e646578206f7560008201527f74206f6620626f756e6473000000000000000000000000000000000000000000602082015250565b7f4552433732313a207472616e7366657220746f206e6f6e20455243373231526560008201527f63656976657220696d706c656d656e7465720000000000000000000000000000602082015250565b7f4f776e61626c653a206e6577206f776e657220697320746865207a65726f206160008201527f6464726573730000000000000000000000000000000000000000000000000000602082015250565b7f4552433732313a207472616e736665722066726f6d20696e636f72726563742060008201527f6f776e6572000000000000000000000000000000000000000000000000000000602082015250565b7f4552433732313a20746f6b656e20616c7265616479206d696e74656400000000600082015250565b7f4552433732313a207472616e7366657220746f20746865207a65726f2061646460008201527f7265737300000000000000000000000000000000000000000000000000000000602082015250565b7f4552433732313a20617070726f766520746f2063616c6c657200000000000000600082015250565b7f4552433732313a206f70657261746f7220717565727920666f72206e6f6e657860008201527f697374656e7420746f6b656e0000000000000000000000000000000000000000602082015250565b7f4552433732313a20617070726f76652063616c6c6572206973206e6f74206f7760008201527f6e6572206e6f7220617070726f76656420666f7220616c6c0000000000000000602082015250565b7f4552433732313a2062616c616e636520717565727920666f7220746865207a6560008201527f726f206164647265737300000000000000000000000000000000000000000000602082015250565b7f4552433732313a206f776e657220717565727920666f72206e6f6e657869737460008201527f656e7420746f6b656e0000000000000000000000000000000000000000000000602082015250565b7f45524337323155524953746f726167653a2055524920736574206f66206e6f6e60008201527f6578697374656e7420746f6b656e000000000000000000000000000000000000602082015250565b7f4552433732313a206d696e7420746f20746865207a65726f2061646472657373600082015250565b7f45524337323155524953746f726167653a2055524920717565727920666f722060008201527f6e6f6e6578697374656e7420746f6b656e000000000000000000000000000000602082015250565b7f4552433732313a20617070726f76656420717565727920666f72206e6f6e657860008201527f697374656e7420746f6b656e0000000000000000000000000000000000000000602082015250565b7f4f776e61626c653a2063616c6c6572206973206e6f7420746865206f776e6572600082015250565b7f4552433732314d657461646174613a2055524920717565727920666f72206e6f60008201527f6e6578697374656e7420746f6b656e0000000000000000000000000000000000602082015250565b7f796f75206f776e2074686973206e667400000000000000000000000000000000600082015250565b7f4552433732313a20617070726f76616c20746f2063757272656e74206f776e6560008201527f7200000000000000000000000000000000000000000000000000000000000000602082015250565b7f4552433732313a207472616e736665722063616c6c6572206973206e6f74206f60008201527f776e6572206e6f7220617070726f766564000000000000000000000000000000602082015250565b7f7468697320746f6b656e496420686173206e6f74206265656e206d696e746564600082015250565b7f455243373231456e756d657261626c653a20676c6f62616c20696e646578206f60008201527f7574206f6620626f756e64730000000000000000000000000000000000000000602082015250565b7f796f752063616e206f6e6c7920636f6c6c656374207468726565206e6674732060008201527f617420612074696d650000000000000000000000000000000000000000000000602082015250565b613bc081613322565b8114613bcb57600080fd5b50565b613bd781613334565b8114613be257600080fd5b50565b613bee81613340565b8114613bf957600080fd5b50565b613c058161338c565b8114613c1057600080fd5b5056fea2646970667358221220ad4f03dc9a6a611f6334df2a98808ddf97fa01fd33d505f400ec562f5f911e8164736f6c63430008040033",
  "linkReferences": {},
  "deployedLinkReferences": {}
}