{
  "_format": "hh-sol-artifact-1",
  "contractName": "MyNFT",
  "sourceName": "contracts/MyNFT.sol",
  "abi": [
    {
      "inputs": [],
      "stateMutability": "nonpayable",
      "type": "constructor"
    },
    {
      "anonymous": false,
      "inputs": [
        {
          "indexed": true,
          "internalType": "address",
          "name": "owner",
          "type": "address"
        },
        {
          "indexed": true,
          "internalType": "address",
          "name": "approved",
          "type": "address"
        },
        {
          "indexed": true,
          "internalType": "uint256",
          "name": "tokenId",
          "type": "uint256"
        }
      ],
      "name": "Approval",
      "type": "event"
    },
    {
      "anonymous": false,
      "inputs": [
        {
          "indexed": true,
          "internalType": "address",
          "name": "owner",
          "type": "address"
        },
        {
          "indexed": true,
          "internalType": "address",
          "name": "operator",
          "type": "address"
        },
        {
          "indexed": false,
          "internalType": "bool",
          "name": "approved",
          "type": "bool"
        }
      ],
      "name": "ApprovalForAll",
      "type": "event"
    },
    {
      "anonymous": false,
      "inputs": [
        {
          "indexed": true,
          "internalType": "address",
          "name": "previousOwner",
          "type": "address"
        },
        {
          "indexed": true,
          "internalType": "address",
          "name": "newOwner",
          "type": "address"
        }
      ],
      "name": "OwnershipTransferred",
      "type": "event"
    },
    {
      "anonymous": false,
      "inputs": [
        {
          "indexed": true,
          "internalType": "address",
          "name": "from",
          "type": "address"
        },
        {
          "indexed": true,
          "internalType": "address",
          "name": "to",
          "type": "address"
        },
        {
          "indexed": true,
          "internalType": "uint256",
          "name": "tokenId",
          "type": "uint256"
        }
      ],
      "name": "Transfer",
      "type": "event"
    },
    {
      "inputs": [
        {
          "internalType": "address",
          "name": "to",
          "type": "address"
        },
        {
          "internalType": "uint256",
          "name": "tokenId",
          "type": "uint256"
        }
      ],
      "name": "approve",
      "outputs": [],
      "stateMutability": "nonpayable",
      "type": "function"
    },
    {
      "inputs": [
        {
          "internalType": "address",
          "name": "owner",
          "type": "address"
        }
      ],
      "name": "balanceOf",
      "outputs": [
        {
          "internalType": "uint256",
          "name": "",
          "type": "uint256"
        }
      ],
      "stateMutability": "view",
      "type": "function"
    },
    {
      "inputs": [
        {
          "internalType": "uint256",
          "name": "",
          "type": "uint256"
        }
      ],
      "name": "claimed",
      "outputs": [
        {
          "internalType": "bool",
          "name": "",
          "type": "bool"
        }
      ],
      "stateMutability": "view",
      "type": "function"
    },
    {
      "inputs": [
        {
          "internalType": "uint256",
          "name": "tokenId",
          "type": "uint256"
        }
      ],
      "name": "collectNft",
      "outputs": [],
      "stateMutability": "nonpayable",
      "type": "function"
    },
    {
      "inputs": [
        {
          "internalType": "uint256",
          "name": "tokenId",
          "type": "uint256"
        }
      ],
      "name": "getApproved",
      "outputs": [
        {
          "internalType": "address",
          "name": "",
          "type": "address"
        }
      ],
      "stateMutability": "view",
      "type": "function"
    },
    {
      "inputs": [
        {
          "internalType": "address",
          "name": "owner",
          "type": "address"
        },
        {
          "internalType": "address",
          "name": "operator",
          "type": "address"
        }
      ],
      "name": "isApprovedForAll",
      "outputs": [
        {
          "internalType": "bool",
          "name": "",
          "type": "bool"
        }
      ],
      "stateMutability": "view",
      "type": "function"
    },
    {
      "inputs": [],
      "name": "name",
      "outputs": [
        {
          "internalType": "string",
          "name": "",
          "type": "string"
        }
      ],
      "stateMutability": "view",
      "type": "function"
    },
    {
      "inputs": [
        {
          "internalType": "address",
          "name": "operator",
          "type": "address"
        },
        {
          "internalType": "address",
          "name": "from",
          "type": "address"
        },
        {
          "internalType": "uint256",
          "name": "tokenId",
          "type": "uint256"
        },
        {
          "internalType": "bytes",
          "name": "data",
          "type": "bytes"
        }
      ],
      "name": "onERC721Received",
      "outputs": [
        {
          "internalType": "bytes4",
          "name": "validity",
          "type": "bytes4"
        }
      ],
      "stateMutability": "pure",
      "type": "function"
    },
    {
      "inputs": [],
      "name": "owner",
      "outputs": [
        {
          "internalType": "address",
          "name": "",
          "type": "address"
        }
      ],
      "stateMutability": "view",
      "type": "function"
    },
    {
      "inputs": [
        {
          "internalType": "uint256",
          "name": "tokenId",
          "type": "uint256"
        }
      ],
      "name": "ownerOf",
      "outputs": [
        {
          "internalType": "address",
          "name": "",
          "type": "address"
        }
      ],
      "stateMutability": "view",
      "type": "function"
    },
    {
      "inputs": [],
      "name": "renounceOwnership",
      "outputs": [],
      "stateMutability": "nonpayable",
      "type": "function"
    },
    {
      "inputs": [
        {
          "internalType": "address",
          "name": "to",
          "type": "address"
        },
        {
          "internalType": "string",
          "name": "uri",
          "type": "string"
        }
      ],
      "name": "safeMint",
      "outputs": [],
      "stateMutability": "nonpayable",
      "type": "function"
    },
    {
      "inputs": [
        {
          "internalType": "address",
          "name": "from",
          "type": "address"
        },
        {
          "internalType": "address",
          "name": "to",
          "type": "address"
        },
        {
          "internalType": "uint256",
          "name": "tokenId",
          "type": "uint256"
        }
      ],
      "name": "safeTransferFrom",
      "outputs": [],
      "stateMutability": "nonpayable",
      "type": "function"
    },
    {
      "inputs": [
        {
          "internalType": "address",
          "name": "from",
          "type": "address"
        },
        {
          "internalType": "address",
          "name": "to",
          "type": "address"
        },
        {
          "internalType": "uint256",
          "name": "tokenId",
          "type": "uint256"
        },
        {
          "internalType": "bytes",
          "name": "_data",
          "type": "bytes"
        }
      ],
      "name": "safeTransferFrom",
      "outputs": [],
      "stateMutability": "nonpayable",
      "type": "function"
    },
    {
      "inputs": [
        {
          "internalType": "address",
          "name": "operator",
          "type": "address"
        },
        {
          "internalType": "bool",
          "name": "approved",
          "type": "bool"
        }
      ],
      "name": "setApprovalForAll",
      "outputs": [],
      "stateMutability": "nonpayable",
      "type": "function"
    },
    {
      "inputs": [
        {
          "internalType": "bytes4",
          "name": "interfaceId",
          "type": "bytes4"
        }
      ],
      "name": "supportsInterface",
      "outputs": [
        {
          "internalType": "bool",
          "name": "",
          "type": "bool"
        }
      ],
      "stateMutability": "view",
      "type": "function"
    },
    {
      "inputs": [],
      "name": "symbol",
      "outputs": [
        {
          "internalType": "string",
          "name": "",
          "type": "string"
        }
      ],
      "stateMutability": "view",
      "type": "function"
    },
    {
      "inputs": [
        {
          "internalType": "uint256",
          "name": "index",
          "type": "uint256"
        }
      ],
      "name": "tokenByIndex",
      "outputs": [
        {
          "internalType": "uint256",
          "name": "",
          "type": "uint256"
        }
      ],
      "stateMutability": "view",
      "type": "function"
    },
    {
      "inputs": [
        {
          "internalType": "address",
          "name": "owner",
          "type": "address"
        },
        {
          "internalType": "uint256",
          "name": "index",
          "type": "uint256"
        }
      ],
      "name": "tokenOfOwnerByIndex",
      "outputs": [
        {
          "internalType": "uint256",
          "name": "",
          "type": "uint256"
        }
      ],
      "stateMutability": "view",
      "type": "function"
    },
    {
      "inputs": [
        {
          "internalType": "uint256",
          "name": "tokenId",
          "type": "uint256"
        }
      ],
      "name": "tokenURI",
      "outputs": [
        {
          "internalType": "string",
          "name": "",
          "type": "string"
        }
      ],
      "stateMutability": "view",
      "type": "function"
    },
    {
      "inputs": [],
      "name": "totalSupply",
      "outputs": [
        {
          "internalType": "uint256",
          "name": "",
          "type": "uint256"
        }
      ],
      "stateMutability": "view",
      "type": "function"
    },
    {
      "inputs": [
        {
          "internalType": "address",
          "name": "from",
          "type": "address"
        },
        {
          "internalType": "address",
          "name": "to",
          "type": "address"
        },
        {
          "internalType": "uint256",
          "name": "tokenId",
          "type": "uint256"
        }
      ],
      "name": "transferFrom",
      "outputs": [],
      "stateMutability": "nonpayable",
      "type": "function"
    },
    {
      "inputs": [
        {
          "internalType": "address",
          "name": "newOwner",
          "type": "address"
        }
      ],
      "name": "transferOwnership",
      "outputs": [],
      "stateMutability": "nonpayable",
      "type": "function"
    }
  ],
  "bytecode": "0x60806040523480156200001157600080fd5b506040518060400160405280600981526020017f4162737472616b747300000000000000000000000000000000000000000000008152506040518060400160405280600481526020017f4142545300000000000000000000000000000000000000000000000000000000815250816000908051906020019062000096929190620001a6565b508060019080519060200190620000af929190620001a6565b505050620000d2620000c6620000d860201b60201c565b620000e060201b60201c565b620002bb565b600033905090565b6000600b60009054906101000a900473ffffffffffffffffffffffffffffffffffffffff16905081600b60006101000a81548173ffffffffffffffffffffffffffffffffffffffff021916908373ffffffffffffffffffffffffffffffffffffffff1602179055508173ffffffffffffffffffffffffffffffffffffffff168173ffffffffffffffffffffffffffffffffffffffff167f8be0079c531659141344cd1fd0a4f28419497f9722a3daafe3b4186f6b6457e060405160405180910390a35050565b828054620001b49062000256565b90600052602060002090601f016020900481019282620001d8576000855562000224565b82601f10620001f357805160ff191683800117855562000224565b8280016001018555821562000224579182015b828111156200022357825182559160200191906001019062000206565b5b50905062000233919062000237565b5090565b5b808211156200025257600081600090555060010162000238565b5090565b600060028204905060018216806200026f57607f821691505b602082108114156200028657620002856200028c565b5b50919050565b7f4e487b7100000000000000000000000000000000000000000000000000000000600052602260045260246000fd5b613d9d80620002cb6000396000f3fe608060405234801561001057600080fd5b506004361061014d5760003560e01c806370a08231116100c3578063b88d4fde1161007c578063b88d4fde146103b0578063c87b56dd146103cc578063d204c45e146103fc578063dbe7e3bd14610418578063e985e9c514610448578063f2fde38b146104785761014d565b806370a0823114610302578063715018a6146103325780637b534fab1461033c5780638da5cb5b1461035857806395d89b4114610376578063a22cb465146103945761014d565b806318160ddd1161011557806318160ddd1461021c57806323b872dd1461023a5780632f745c591461025657806342842e0e146102865780634f6ccce7146102a25780636352211e146102d25761014d565b806301ffc9a71461015257806306fdde0314610182578063081812fc146101a0578063095ea7b3146101d0578063150b7a02146101ec575b600080fd5b61016c60048036038101906101679190612a28565b610494565b6040516101799190612f55565b60405180910390f35b61018a6104a6565b6040516101979190612f8b565b60405180910390f35b6101ba60048036038101906101b59190612a7a565b610538565b6040516101c79190612eee565b60405180910390f35b6101ea60048036038101906101e591906129ec565b6105bd565b005b61020660048036038101906102019190612861565b6106d5565b6040516102139190612f70565b60405180910390f35b6102246106ea565b60405161023191906132ad565b60405180910390f35b610254600480360381019061024f9190612812565b6106f7565b005b610270600480360381019061026b91906129ec565b610757565b60405161027d91906132ad565b60405180910390f35b6102a0600480360381019061029b9190612812565b6107fc565b005b6102bc60048036038101906102b79190612a7a565b61081c565b6040516102c991906132ad565b60405180910390f35b6102ec60048036038101906102e79190612a7a565b6108b3565b6040516102f99190612eee565b60405180910390f35b61031c600480360381019061031791906127ad565b610965565b60405161032991906132ad565b60405180910390f35b61033a610a1d565b005b61035660048036038101906103519190612a7a565b610aa5565b005b610360610c83565b60405161036d9190612eee565b60405180910390f35b61037e610cad565b60405161038b9190612f8b565b60405180910390f35b6103ae60048036038101906103a9919061295c565b610d3f565b005b6103ca60048036038101906103c591906128e1565b610d55565b005b6103e660048036038101906103e19190612a7a565b610db7565b6040516103f39190612f8b565b60405180910390f35b61041660048036038101906104119190612998565b610dc9565b005b610432600480360381019061042d9190612a7a565b610dfa565b60405161043f9190612f55565b60405180910390f35b610462600480360381019061045d91906127d6565b610e1a565b60405161046f9190612f55565b60405180910390f35b610492600480360381019061048d91906127ad565b610eae565b005b600061049f82610fa6565b9050919050565b6060600080546104b590613503565b80601f01602080910402602001604051908101604052809291908181526020018280546104e190613503565b801561052e5780601f106105035761010080835404028352916020019161052e565b820191906000526020600020905b81548152906001019060200180831161051157829003601f168201915b5050505050905090565b600061054382611020565b610582576040517f08c379a00000000000000000000000000000000000000000000000000000000081526004016105799061318d565b60405180910390fd5b6004600083815260200190815260200160002060009054906101000a900473ffffffffffffffffffffffffffffffffffffffff169050919050565b60006105c8826108b3565b90508073ffffffffffffffffffffffffffffffffffffffff168373ffffffffffffffffffffffffffffffffffffffff161415610639576040517f08c379a00000000000000000000000000000000000000000000000000000000081526004016106309061320d565b60405180910390fd5b8073ffffffffffffffffffffffffffffffffffffffff1661065861108c565b73ffffffffffffffffffffffffffffffffffffffff16148061068757506106868161068161108c565b610e1a565b5b6106c6576040517f08c379a00000000000000000000000000000000000000000000000000000000081526004016106bd906130cd565b60405180910390fd5b6106d08383611094565b505050565b600063150b7a0260e01b905095945050505050565b6000600880549050905090565b61070861070261108c565b8261114d565b610747576040517f08c379a000000000000000000000000000000000000000000000000000000000815260040161073e9061322d565b60405180910390fd5b61075283838361122b565b505050565b600061076283610965565b82106107a3576040517f08c379a000000000000000000000000000000000000000000000000000000000815260040161079a90612fad565b60405180910390fd5b600660008473ffffffffffffffffffffffffffffffffffffffff1673ffffffffffffffffffffffffffffffffffffffff168152602001908152602001600020600083815260200190815260200160002054905092915050565b61081783838360405180602001604052806000815250610d55565b505050565b60006108266106ea565b8210610867576040517f08c379a000000000000000000000000000000000000000000000000000000000815260040161085e9061326d565b60405180910390fd5b600882815481106108a1577f4e487b7100000000000000000000000000000000000000000000000000000000600052603260045260246000fd5b90600052602060002001549050919050565b6000806002600084815260200190815260200160002060009054906101000a900473ffffffffffffffffffffffffffffffffffffffff169050600073ffffffffffffffffffffffffffffffffffffffff168173ffffffffffffffffffffffffffffffffffffffff16141561095c576040517f08c379a00000000000000000000000000000000000000000000000000000000081526004016109539061310d565b60405180910390fd5b80915050919050565b60008073ffffffffffffffffffffffffffffffffffffffff168273ffffffffffffffffffffffffffffffffffffffff1614156109d6576040517f08c379a00000000000000000000000000000000000000000000000000000000081526004016109cd906130ed565b60405180910390fd5b600360008373ffffffffffffffffffffffffffffffffffffffff1673ffffffffffffffffffffffffffffffffffffffff168152602001908152602001600020549050919050565b610a2561108c565b73ffffffffffffffffffffffffffffffffffffffff16610a43610c83565b73ffffffffffffffffffffffffffffffffffffffff1614610a99576040517f08c379a0000000000000000000000000000000000000000000000000000000008152600401610a90906131ad565b60405180910390fd5b610aa36000611492565b565b600073ffffffffffffffffffffffffffffffffffffffff16610ac682611558565b73ffffffffffffffffffffffffffffffffffffffff161415610b1d576040517f08c379a0000000000000000000000000000000000000000000000000000000008152600401610b149061324d565b60405180910390fd5b3373ffffffffffffffffffffffffffffffffffffffff16610b3d82611558565b73ffffffffffffffffffffffffffffffffffffffff161415610b94576040517f08c379a0000000000000000000000000000000000000000000000000000000008152600401610b8b906131ed565b60405180910390fd5b600d600082815260200190815260200160002060009054906101000a900460ff1615610bf5576040517f08c379a0000000000000000000000000000000000000000000000000000000008152600401610bec906130ad565b60405180910390fd5b6003610c0033610965565b1115610c41576040517f08c379a0000000000000000000000000000000000000000000000000000000008152600401610c389061328d565b60405180910390fd5b610c54610c4d82611558565b338361122b565b6001600d600083815260200190815260200160002060006101000a81548160ff02191690831515021790555050565b6000600b60009054906101000a900473ffffffffffffffffffffffffffffffffffffffff16905090565b606060018054610cbc90613503565b80601f0160208091040260200160405190810160405280929190818152602001828054610ce890613503565b8015610d355780601f10610d0a57610100808354040283529160200191610d35565b820191906000526020600020905b815481529060010190602001808311610d1857829003601f168201915b5050505050905090565b610d51610d4a61108c565b838361156a565b5050565b610d66610d6061108c565b8361114d565b610da5576040517f08c379a0000000000000000000000000000000000000000000000000000000008152600401610d9c9061322d565b60405180910390fd5b610db1848484846116d7565b50505050565b6060610dc282611733565b9050919050565b6000610dd5600c611885565b9050610de1600c611893565b610deb83826118a9565b610df581836118c7565b505050565b600d6020528060005260406000206000915054906101000a900460ff1681565b6000600560008473ffffffffffffffffffffffffffffffffffffffff1673ffffffffffffffffffffffffffffffffffffffff16815260200190815260200160002060008373ffffffffffffffffffffffffffffffffffffffff1673ffffffffffffffffffffffffffffffffffffffff16815260200190815260200160002060009054906101000a900460ff16905092915050565b610eb661108c565b73ffffffffffffffffffffffffffffffffffffffff16610ed4610c83565b73ffffffffffffffffffffffffffffffffffffffff1614610f2a576040517f08c379a0000000000000000000000000000000000000000000000000000000008152600401610f21906131ad565b60405180910390fd5b600073ffffffffffffffffffffffffffffffffffffffff168173ffffffffffffffffffffffffffffffffffffffff161415610f9a576040517f08c379a0000000000000000000000000000000000000000000000000000000008152600401610f9190612fed565b60405180910390fd5b610fa381611492565b50565b60007f780e9d63000000000000000000000000000000000000000000000000000000007bffffffffffffffffffffffffffffffffffffffffffffffffffffffff1916827bffffffffffffffffffffffffffffffffffffffffffffffffffffffff1916148061101957506110188261193b565b5b9050919050565b60008073ffffffffffffffffffffffffffffffffffffffff166002600084815260200190815260200160002060009054906101000a900473ffffffffffffffffffffffffffffffffffffffff1673ffffffffffffffffffffffffffffffffffffffff1614159050919050565b600033905090565b816004600083815260200190815260200160002060006101000a81548173ffffffffffffffffffffffffffffffffffffffff021916908373ffffffffffffffffffffffffffffffffffffffff160217905550808273ffffffffffffffffffffffffffffffffffffffff16611107836108b3565b73ffffffffffffffffffffffffffffffffffffffff167f8c5be1e5ebec7d5bd14f71427d1e84f3dd0314c0f7b2291e5b200ac8c7c3b92560405160405180910390a45050565b600061115882611020565b611197576040517f08c379a000000000000000000000000000000000000000000000000000000000815260040161118e9061308d565b60405180910390fd5b60006111a2836108b3565b90508073ffffffffffffffffffffffffffffffffffffffff168473ffffffffffffffffffffffffffffffffffffffff1614806111e457506111e38185610e1a565b5b8061122257508373ffffffffffffffffffffffffffffffffffffffff1661120a84610538565b73ffffffffffffffffffffffffffffffffffffffff16145b91505092915050565b8273ffffffffffffffffffffffffffffffffffffffff1661124b826108b3565b73ffffffffffffffffffffffffffffffffffffffff16146112a1576040517f08c379a00000000000000000000000000000000000000000000000000000000081526004016112989061300d565b60405180910390fd5b600073ffffffffffffffffffffffffffffffffffffffff168273ffffffffffffffffffffffffffffffffffffffff161415611311576040517f08c379a00000000000000000000000000000000000000000000000000000000081526004016113089061304d565b60405180910390fd5b61131c838383611a1d565b611327600082611094565b6001600360008573ffffffffffffffffffffffffffffffffffffffff1673ffffffffffffffffffffffffffffffffffffffff16815260200190815260200160002060008282546113779190613419565b925050819055506001600360008473ffffffffffffffffffffffffffffffffffffffff1673ffffffffffffffffffffffffffffffffffffffff16815260200190815260200160002060008282546113ce9190613392565b92505081905550816002600083815260200190815260200160002060006101000a81548173ffffffffffffffffffffffffffffffffffffffff021916908373ffffffffffffffffffffffffffffffffffffffff160217905550808273ffffffffffffffffffffffffffffffffffffffff168473ffffffffffffffffffffffffffffffffffffffff167fddf252ad1be2c89b69c2b068fc378daa952ba7f163c4a11628f55a4df523b3ef60405160405180910390a461148d838383611a2d565b505050565b6000600b60009054906101000a900473ffffffffffffffffffffffffffffffffffffffff16905081600b60006101000a81548173ffffffffffffffffffffffffffffffffffffffff021916908373ffffffffffffffffffffffffffffffffffffffff1602179055508173ffffffffffffffffffffffffffffffffffffffff168173ffffffffffffffffffffffffffffffffffffffff167f8be0079c531659141344cd1fd0a4f28419497f9722a3daafe3b4186f6b6457e060405160405180910390a35050565b6000611563826108b3565b9050919050565b8173ffffffffffffffffffffffffffffffffffffffff168373ffffffffffffffffffffffffffffffffffffffff1614156115d9576040517f08c379a00000000000000000000000000000000000000000000000000000000081526004016115d09061306d565b60405180910390fd5b80600560008573ffffffffffffffffffffffffffffffffffffffff1673ffffffffffffffffffffffffffffffffffffffff16815260200190815260200160002060008473ffffffffffffffffffffffffffffffffffffffff1673ffffffffffffffffffffffffffffffffffffffff16815260200190815260200160002060006101000a81548160ff0219169083151502179055508173ffffffffffffffffffffffffffffffffffffffff168373ffffffffffffffffffffffffffffffffffffffff167f17307eab39ab6107e8899845ad3d59bd9653f200f220920489ca2b5937696c31836040516116ca9190612f55565b60405180910390a3505050565b6116e284848461122b565b6116ee84848484611a32565b61172d576040517f08c379a000000000000000000000000000000000000000000000000000000000815260040161172490612fcd565b60405180910390fd5b50505050565b606061173e82611020565b61177d576040517f08c379a00000000000000000000000000000000000000000000000000000000081526004016117749061316d565b60405180910390fd5b6000600a6000848152602001908152602001600020805461179d90613503565b80601f01602080910402602001604051908101604052809291908181526020018280546117c990613503565b80156118165780601f106117eb57610100808354040283529160200191611816565b820191906000526020600020905b8154815290600101906020018083116117f957829003601f168201915b505050505090506000611827611bc9565b905060008151141561183d578192505050611880565b60008251111561187257808260405160200161185a929190612eca565b60405160208183030381529060405292505050611880565b61187b84611be0565b925050505b919050565b600081600001549050919050565b6001816000016000828254019250508190555050565b6118c3828260405180602001604052806000815250611c87565b5050565b6118d082611020565b61190f576040517f08c379a00000000000000000000000000000000000000000000000000000000081526004016119069061312d565b60405180910390fd5b80600a60008481526020019081526020016000209080519060200190611936929190612587565b505050565b60007f80ac58cd000000000000000000000000000000000000000000000000000000007bffffffffffffffffffffffffffffffffffffffffffffffffffffffff1916827bffffffffffffffffffffffffffffffffffffffffffffffffffffffff19161480611a0657507f5b5e139f000000000000000000000000000000000000000000000000000000007bffffffffffffffffffffffffffffffffffffffffffffffffffffffff1916827bffffffffffffffffffffffffffffffffffffffffffffffffffffffff1916145b80611a165750611a1582611ce2565b5b9050919050565b611a28838383611d4c565b505050565b505050565b6000611a538473ffffffffffffffffffffffffffffffffffffffff16611e60565b15611bbc578373ffffffffffffffffffffffffffffffffffffffff1663150b7a02611a7c61108c565b8786866040518563ffffffff1660e01b8152600401611a9e9493929190612f09565b602060405180830381600087803b158015611ab857600080fd5b505af1925050508015611ae957506040513d601f19601f82011682018060405250810190611ae69190612a51565b60015b611b6c573d8060008114611b19576040519150601f19603f3d011682016040523d82523d6000602084013e611b1e565b606091505b50600081511415611b64576040517f08c379a0000000000000000000000000000000000000000000000000000000008152600401611b5b90612fcd565b60405180910390fd5b805181602001fd5b63150b7a0260e01b7bffffffffffffffffffffffffffffffffffffffffffffffffffffffff1916817bffffffffffffffffffffffffffffffffffffffffffffffffffffffff191614915050611bc1565b600190505b949350505050565b606060405180602001604052806000815250905090565b6060611beb82611020565b611c2a576040517f08c379a0000000000000000000000000000000000000000000000000000000008152600401611c21906131cd565b60405180910390fd5b6000611c34611bc9565b90506000815111611c545760405180602001604052806000815250611c7f565b80611c5e84611e83565b604051602001611c6f929190612eca565b6040516020818303038152906040525b915050919050565b611c918383612030565b611c9e6000848484611a32565b611cdd576040517f08c379a0000000000000000000000000000000000000000000000000000000008152600401611cd490612fcd565b60405180910390fd5b505050565b60007f01ffc9a7000000000000000000000000000000000000000000000000000000007bffffffffffffffffffffffffffffffffffffffffffffffffffffffff1916827bffffffffffffffffffffffffffffffffffffffffffffffffffffffff1916149050919050565b611d5783838361220a565b600073ffffffffffffffffffffffffffffffffffffffff168373ffffffffffffffffffffffffffffffffffffffff161415611d9a57611d958161220f565b611dd9565b8173ffffffffffffffffffffffffffffffffffffffff168373ffffffffffffffffffffffffffffffffffffffff1614611dd857611dd78382612258565b5b5b600073ffffffffffffffffffffffffffffffffffffffff168273ffffffffffffffffffffffffffffffffffffffff161415611e1c57611e17816123c5565b611e5b565b8273ffffffffffffffffffffffffffffffffffffffff168273ffffffffffffffffffffffffffffffffffffffff1614611e5a57611e598282612508565b5b5b505050565b6000808273ffffffffffffffffffffffffffffffffffffffff163b119050919050565b60606000821415611ecb576040518060400160405280600181526020017f3000000000000000000000000000000000000000000000000000000000000000815250905061202b565b600082905060005b60008214611efd578080611ee690613566565b915050600a82611ef691906133e8565b9150611ed3565b60008167ffffffffffffffff811115611f3f577f4e487b7100000000000000000000000000000000000000000000000000000000600052604160045260246000fd5b6040519080825280601f01601f191660200182016040528015611f715781602001600182028036833780820191505090505b5090505b6000851461202457600182611f8a9190613419565b9150600a85611f9991906135af565b6030611fa59190613392565b60f81b818381518110611fe1577f4e487b7100000000000000000000000000000000000000000000000000000000600052603260045260246000fd5b60200101907effffffffffffffffffffffffffffffffffffffffffffffffffffffffffffff1916908160001a905350600a8561201d91906133e8565b9450611f75565b8093505050505b919050565b600073ffffffffffffffffffffffffffffffffffffffff168273ffffffffffffffffffffffffffffffffffffffff1614156120a0576040517f08c379a00000000000000000000000000000000000000000000000000000000081526004016120979061314d565b60405180910390fd5b6120a981611020565b156120e9576040517f08c379a00000000000000000000000000000000000000000000000000000000081526004016120e09061302d565b60405180910390fd5b6120f560008383611a1d565b6001600360008473ffffffffffffffffffffffffffffffffffffffff1673ffffffffffffffffffffffffffffffffffffffff16815260200190815260200160002060008282546121459190613392565b92505081905550816002600083815260200190815260200160002060006101000a81548173ffffffffffffffffffffffffffffffffffffffff021916908373ffffffffffffffffffffffffffffffffffffffff160217905550808273ffffffffffffffffffffffffffffffffffffffff16600073ffffffffffffffffffffffffffffffffffffffff167fddf252ad1be2c89b69c2b068fc378daa952ba7f163c4a11628f55a4df523b3ef60405160405180910390a461220660008383611a2d565b5050565b505050565b6008805490506009600083815260200190815260200160002081905550600881908060018154018082558091505060019003906000526020600020016000909190919091505550565b6000600161226584610965565b61226f9190613419565b9050600060076000848152602001908152602001600020549050818114612354576000600660008673ffffffffffffffffffffffffffffffffffffffff1673ffffffffffffffffffffffffffffffffffffffff168152602001908152602001600020600084815260200190815260200160002054905080600660008773ffffffffffffffffffffffffffffffffffffffff1673ffffffffffffffffffffffffffffffffffffffff168152602001908152602001600020600084815260200190815260200160002081905550816007600083815260200190815260200160002081905550505b6007600084815260200190815260200160002060009055600660008573ffffffffffffffffffffffffffffffffffffffff1673ffffffffffffffffffffffffffffffffffffffff16815260200190815260200160002060008381526020019081526020016000206000905550505050565b600060016008805490506123d99190613419565b905060006009600084815260200190815260200160002054905060006008838154811061242f577f4e487b7100000000000000000000000000000000000000000000000000000000600052603260045260246000fd5b906000526020600020015490508060088381548110612477577f4e487b7100000000000000000000000000000000000000000000000000000000600052603260045260246000fd5b9060005260206000200181905550816009600083815260200190815260200160002081905550600960008581526020019081526020016000206000905560088054806124ec577f4e487b7100000000000000000000000000000000000000000000000000000000600052603160045260246000fd5b6001900381819060005260206000200160009055905550505050565b600061251383610965565b905081600660008573ffffffffffffffffffffffffffffffffffffffff1673ffffffffffffffffffffffffffffffffffffffff168152602001908152602001600020600083815260200190815260200160002081905550806007600084815260200190815260200160002081905550505050565b82805461259390613503565b90600052602060002090601f0160209004810192826125b557600085556125fc565b82601f106125ce57805160ff19168380011785556125fc565b828001600101855582156125fc579182015b828111156125fb5782518255916020019190600101906125e0565b5b509050612609919061260d565b5090565b5b8082111561262657600081600090555060010161260e565b5090565b600061263d612638846132ed565b6132c8565b90508281526020810184848401111561265557600080fd5b6126608482856134c1565b509392505050565b600061267b6126768461331e565b6132c8565b90508281526020810184848401111561269357600080fd5b61269e8482856134c1565b509392505050565b6000813590506126b581613d0b565b92915050565b6000813590506126ca81613d22565b92915050565b6000813590506126df81613d39565b92915050565b6000815190506126f481613d39565b92915050565b60008083601f84011261270c57600080fd5b8235905067ffffffffffffffff81111561272557600080fd5b60208301915083600182028301111561273d57600080fd5b9250929050565b600082601f83011261275557600080fd5b813561276584826020860161262a565b91505092915050565b600082601f83011261277f57600080fd5b813561278f848260208601612668565b91505092915050565b6000813590506127a781613d50565b92915050565b6000602082840312156127bf57600080fd5b60006127cd848285016126a6565b91505092915050565b600080604083850312156127e957600080fd5b60006127f7858286016126a6565b9250506020612808858286016126a6565b9150509250929050565b60008060006060848603121561282757600080fd5b6000612835868287016126a6565b9350506020612846868287016126a6565b925050604061285786828701612798565b9150509250925092565b60008060008060006080868803121561287957600080fd5b6000612887888289016126a6565b9550506020612898888289016126a6565b94505060406128a988828901612798565b935050606086013567ffffffffffffffff8111156128c657600080fd5b6128d2888289016126fa565b92509250509295509295909350565b600080600080608085870312156128f757600080fd5b6000612905878288016126a6565b9450506020612916878288016126a6565b935050604061292787828801612798565b925050606085013567ffffffffffffffff81111561294457600080fd5b61295087828801612744565b91505092959194509250565b6000806040838503121561296f57600080fd5b600061297d858286016126a6565b925050602061298e858286016126bb565b9150509250929050565b600080604083850312156129ab57600080fd5b60006129b9858286016126a6565b925050602083013567ffffffffffffffff8111156129d657600080fd5b6129e28582860161276e565b9150509250929050565b600080604083850312156129ff57600080fd5b6000612a0d858286016126a6565b9250506020612a1e85828601612798565b9150509250929050565b600060208284031215612a3a57600080fd5b6000612a48848285016126d0565b91505092915050565b600060208284031215612a6357600080fd5b6000612a71848285016126e5565b91505092915050565b600060208284031215612a8c57600080fd5b6000612a9a84828501612798565b91505092915050565b612aac8161344d565b82525050565b612abb8161345f565b82525050565b612aca8161346b565b82525050565b6000612adb8261334f565b612ae58185613365565b9350612af58185602086016134d0565b612afe8161369c565b840191505092915050565b6000612b148261335a565b612b1e8185613376565b9350612b2e8185602086016134d0565b612b378161369c565b840191505092915050565b6000612b4d8261335a565b612b578185613387565b9350612b678185602086016134d0565b80840191505092915050565b6000612b80602b83613376565b9150612b8b826136ad565b604082019050919050565b6000612ba3603283613376565b9150612bae826136fc565b604082019050919050565b6000612bc6602683613376565b9150612bd18261374b565b604082019050919050565b6000612be9602583613376565b9150612bf48261379a565b604082019050919050565b6000612c0c601c83613376565b9150612c17826137e9565b602082019050919050565b6000612c2f602483613376565b9150612c3a82613812565b604082019050919050565b6000612c52601983613376565b9150612c5d82613861565b602082019050919050565b6000612c75602c83613376565b9150612c808261388a565b604082019050919050565b6000612c98601983613376565b9150612ca3826138d9565b602082019050919050565b6000612cbb603883613376565b9150612cc682613902565b604082019050919050565b6000612cde602a83613376565b9150612ce982613951565b604082019050919050565b6000612d01602983613376565b9150612d0c826139a0565b604082019050919050565b6000612d24602e83613376565b9150612d2f826139ef565b604082019050919050565b6000612d47602083613376565b9150612d5282613a3e565b602082019050919050565b6000612d6a603183613376565b9150612d7582613a67565b604082019050919050565b6000612d8d602c83613376565b9150612d9882613ab6565b604082019050919050565b6000612db0602083613376565b9150612dbb82613b05565b602082019050919050565b6000612dd3602f83613376565b9150612dde82613b2e565b604082019050919050565b6000612df6601083613376565b9150612e0182613b7d565b602082019050919050565b6000612e19602183613376565b9150612e2482613ba6565b604082019050919050565b6000612e3c603183613376565b9150612e4782613bf5565b604082019050919050565b6000612e5f602083613376565b9150612e6a82613c44565b602082019050919050565b6000612e82602c83613376565b9150612e8d82613c6d565b604082019050919050565b6000612ea5602983613376565b9150612eb082613cbc565b604082019050919050565b612ec4816134b7565b82525050565b6000612ed68285612b42565b9150612ee28284612b42565b91508190509392505050565b6000602082019050612f036000830184612aa3565b92915050565b6000608082019050612f1e6000830187612aa3565b612f2b6020830186612aa3565b612f386040830185612ebb565b8181036060830152612f4a8184612ad0565b905095945050505050565b6000602082019050612f6a6000830184612ab2565b92915050565b6000602082019050612f856000830184612ac1565b92915050565b60006020820190508181036000830152612fa58184612b09565b905092915050565b60006020820190508181036000830152612fc681612b73565b9050919050565b60006020820190508181036000830152612fe681612b96565b9050919050565b6000602082019050818103600083015261300681612bb9565b9050919050565b6000602082019050818103600083015261302681612bdc565b9050919050565b6000602082019050818103600083015261304681612bff565b9050919050565b6000602082019050818103600083015261306681612c22565b9050919050565b6000602082019050818103600083015261308681612c45565b9050919050565b600060208201905081810360008301526130a681612c68565b9050919050565b600060208201905081810360008301526130c681612c8b565b9050919050565b600060208201905081810360008301526130e681612cae565b9050919050565b6000602082019050818103600083015261310681612cd1565b9050919050565b6000602082019050818103600083015261312681612cf4565b9050919050565b6000602082019050818103600083015261314681612d17565b9050919050565b6000602082019050818103600083015261316681612d3a565b9050919050565b6000602082019050818103600083015261318681612d5d565b9050919050565b600060208201905081810360008301526131a681612d80565b9050919050565b600060208201905081810360008301526131c681612da3565b9050919050565b600060208201905081810360008301526131e681612dc6565b9050919050565b6000602082019050818103600083015261320681612de9565b9050919050565b6000602082019050818103600083015261322681612e0c565b9050919050565b6000602082019050818103600083015261324681612e2f565b9050919050565b6000602082019050818103600083015261326681612e52565b9050919050565b6000602082019050818103600083015261328681612e75565b9050919050565b600060208201905081810360008301526132a681612e98565b9050919050565b60006020820190506132c26000830184612ebb565b92915050565b60006132d26132e3565b90506132de8282613535565b919050565b6000604051905090565b600067ffffffffffffffff8211156133085761330761366d565b5b6133118261369c565b9050602081019050919050565b600067ffffffffffffffff8211156133395761333861366d565b5b6133428261369c565b9050602081019050919050565b600081519050919050565b600081519050919050565b600082825260208201905092915050565b600082825260208201905092915050565b600081905092915050565b600061339d826134b7565b91506133a8836134b7565b9250827fffffffffffffffffffffffffffffffffffffffffffffffffffffffffffffffff038211156133dd576133dc6135e0565b5b828201905092915050565b60006133f3826134b7565b91506133fe836134b7565b92508261340e5761340d61360f565b5b828204905092915050565b6000613424826134b7565b915061342f836134b7565b925082821015613442576134416135e0565b5b828203905092915050565b600061345882613497565b9050919050565b60008115159050919050565b60007fffffffff0000000000000000000000000000000000000000000000000000000082169050919050565b600073ffffffffffffffffffffffffffffffffffffffff82169050919050565b6000819050919050565b82818337600083830152505050565b60005b838110156134ee5780820151818401526020810190506134d3565b838111156134fd576000848401525b50505050565b6000600282049050600182168061351b57607f821691505b6020821081141561352f5761352e61363e565b5b50919050565b61353e8261369c565b810181811067ffffffffffffffff8211171561355d5761355c61366d565b5b80604052505050565b6000613571826134b7565b91507fffffffffffffffffffffffffffffffffffffffffffffffffffffffffffffffff8214156135a4576135a36135e0565b5b600182019050919050565b60006135ba826134b7565b91506135c5836134b7565b9250826135d5576135d461360f565b5b828206905092915050565b7f4e487b7100000000000000000000000000000000000000000000000000000000600052601160045260246000fd5b7f4e487b7100000000000000000000000000000000000000000000000000000000600052601260045260246000fd5b7f4e487b7100000000000000000000000000000000000000000000000000000000600052602260045260246000fd5b7f4e487b7100000000000000000000000000000000000000000000000000000000600052604160045260246000fd5b6000601f19601f8301169050919050565b7f455243373231456e756d657261626c653a206f776e657220696e646578206f7560008201527f74206f6620626f756e6473000000000000000000000000000000000000000000602082015250565b7f4552433732313a207472616e7366657220746f206e6f6e20455243373231526560008201527f63656976657220696d706c656d656e7465720000000000000000000000000000602082015250565b7f4f776e61626c653a206e6577206f776e657220697320746865207a65726f206160008201527f6464726573730000000000000000000000000000000000000000000000000000602082015250565b7f4552433732313a207472616e736665722066726f6d20696e636f72726563742060008201527f6f776e6572000000000000000000000000000000000000000000000000000000602082015250565b7f4552433732313a20746f6b656e20616c7265616479206d696e74656400000000600082015250565b7f4552433732313a207472616e7366657220746f20746865207a65726f2061646460008201527f7265737300000000000000000000000000000000000000000000000000000000602082015250565b7f4552433732313a20617070726f766520746f2063616c6c657200000000000000600082015250565b7f4552433732313a206f70657261746f7220717565727920666f72206e6f6e657860008201527f697374656e7420746f6b656e0000000000000000000000000000000000000000602082015250565b7f54686973206e667420686173206265656e20636c61696d656400000000000000600082015250565b7f4552433732313a20617070726f76652063616c6c6572206973206e6f74206f7760008201527f6e6572206e6f7220617070726f76656420666f7220616c6c0000000000000000602082015250565b7f4552433732313a2062616c616e636520717565727920666f7220746865207a6560008201527f726f206164647265737300000000000000000000000000000000000000000000602082015250565b7f4552433732313a206f776e657220717565727920666f72206e6f6e657869737460008201527f656e7420746f6b656e0000000000000000000000000000000000000000000000602082015250565b7f45524337323155524953746f726167653a2055524920736574206f66206e6f6e60008201527f6578697374656e7420746f6b656e000000000000000000000000000000000000602082015250565b7f4552433732313a206d696e7420746f20746865207a65726f2061646472657373600082015250565b7f45524337323155524953746f726167653a2055524920717565727920666f722060008201527f6e6f6e6578697374656e7420746f6b656e000000000000000000000000000000602082015250565b7f4552433732313a20617070726f76656420717565727920666f72206e6f6e657860008201527f697374656e7420746f6b656e0000000000000000000000000000000000000000602082015250565b7f4f776e61626c653a2063616c6c6572206973206e6f7420746865206f776e6572600082015250565b7f4552433732314d657461646174613a2055524920717565727920666f72206e6f60008201527f6e6578697374656e7420746f6b656e0000000000000000000000000000000000602082015250565b7f796f75206f776e2074686973206e667400000000000000000000000000000000600082015250565b7f4552433732313a20617070726f76616c20746f2063757272656e74206f776e6560008201527f7200000000000000000000000000000000000000000000000000000000000000602082015250565b7f4552433732313a207472616e736665722063616c6c6572206973206e6f74206f60008201527f776e6572206e6f7220617070726f766564000000000000000000000000000000602082015250565b7f7468697320746f6b656e496420686173206e6f74206265656e206d696e746564600082015250565b7f455243373231456e756d657261626c653a20676c6f62616c20696e646578206f60008201527f7574206f6620626f756e64730000000000000000000000000000000000000000602082015250565b7f796f752063616e206f6e6c7920636f6c6c656374207468726565206e6674732060008201527f617420612074696d650000000000000000000000000000000000000000000000602082015250565b613d148161344d565b8114613d1f57600080fd5b50565b613d2b8161345f565b8114613d3657600080fd5b50565b613d428161346b565b8114613d4d57600080fd5b50565b613d59816134b7565b8114613d6457600080fd5b5056fea2646970667358221220c80f85242c7bdd117496fa796649cd691858cf2b256a28e5c07d491badca8c8164736f6c63430008040033",
  "linkReferences": {},
  "deployedLinkReferences": {}
}